{
  "contractName": "MultiSigWallet",
  "abi": [
    {
      "inputs": [
        {
          "internalType": "address[]",
          "name": "_approvers",
          "type": "address[]"
        },
        {
          "internalType": "uint256",
          "name": "_quorum",
          "type": "uint256"
        }
      ],
      "stateMutability": "nonpayable",
      "type": "constructor"
    },
    {
      "inputs": [
        {
          "internalType": "address",
          "name": "",
          "type": "address"
        },
        {
          "internalType": "uint256",
          "name": "",
          "type": "uint256"
        }
      ],
      "name": "approvals",
      "outputs": [
        {
          "internalType": "bool",
          "name": "",
          "type": "bool"
        }
      ],
      "stateMutability": "view",
      "type": "function",
      "constant": true
    },
    {
      "inputs": [
        {
          "internalType": "uint256",
          "name": "",
          "type": "uint256"
        }
      ],
      "name": "approvers",
      "outputs": [
        {
          "internalType": "address",
          "name": "",
          "type": "address"
        }
      ],
      "stateMutability": "view",
      "type": "function",
      "constant": true
    },
    {
      "inputs": [],
      "name": "nextId",
      "outputs": [
        {
          "internalType": "uint256",
          "name": "",
          "type": "uint256"
        }
      ],
      "stateMutability": "view",
      "type": "function",
      "constant": true
    },
    {
      "inputs": [],
      "name": "quorum",
      "outputs": [
        {
          "internalType": "uint256",
          "name": "",
          "type": "uint256"
        }
      ],
      "stateMutability": "view",
      "type": "function",
      "constant": true
    },
    {
      "inputs": [
        {
          "internalType": "uint256",
          "name": "",
          "type": "uint256"
        }
      ],
      "name": "transfers",
      "outputs": [
        {
          "internalType": "uint256",
          "name": "id",
          "type": "uint256"
        },
        {
          "internalType": "uint256",
          "name": "amount",
          "type": "uint256"
        },
        {
          "internalType": "address payable",
          "name": "to",
          "type": "address"
        },
        {
          "internalType": "uint256",
          "name": "approvals",
          "type": "uint256"
        },
        {
          "internalType": "bool",
          "name": "sent",
          "type": "bool"
        }
      ],
      "stateMutability": "view",
      "type": "function",
      "constant": true
    },
    {
      "stateMutability": "payable",
      "type": "receive",
      "payable": true
    },
    {
      "inputs": [],
      "name": "getApprovers",
      "outputs": [
        {
          "internalType": "address[]",
          "name": "",
          "type": "address[]"
        }
      ],
      "stateMutability": "view",
      "type": "function",
      "constant": true
    },
    {
      "inputs": [],
      "name": "getTransfers",
      "outputs": [
        {
          "components": [
            {
              "internalType": "uint256",
              "name": "id",
              "type": "uint256"
            },
            {
              "internalType": "uint256",
              "name": "amount",
              "type": "uint256"
            },
            {
              "internalType": "address payable",
              "name": "to",
              "type": "address"
            },
            {
              "internalType": "uint256",
              "name": "approvals",
              "type": "uint256"
            },
            {
              "internalType": "bool",
              "name": "sent",
              "type": "bool"
            }
          ],
          "internalType": "struct MultiSigWallet.Transfer[]",
          "name": "",
          "type": "tuple[]"
        }
      ],
      "stateMutability": "view",
      "type": "function",
      "constant": true
    },
    {
      "inputs": [
        {
          "internalType": "uint256",
          "name": "amount",
          "type": "uint256"
        },
        {
          "internalType": "address payable",
          "name": "to",
          "type": "address"
        }
      ],
      "name": "craeteTransfer",
      "outputs": [],
      "stateMutability": "nonpayable",
      "type": "function"
    },
    {
      "inputs": [
        {
          "internalType": "uint256",
          "name": "id",
          "type": "uint256"
        }
      ],
      "name": "approveTransfers",
      "outputs": [],
      "stateMutability": "nonpayable",
      "type": "function"
    },
    {
      "inputs": [
        {
          "internalType": "address",
          "name": "_addr",
          "type": "address"
        },
        {
          "internalType": "uint256",
          "name": "id",
          "type": "uint256"
        }
      ],
      "name": "checkApprovals",
      "outputs": [
        {
          "internalType": "bool",
          "name": "",
          "type": "bool"
        }
      ],
      "stateMutability": "view",
      "type": "function",
      "constant": true
    }
  ],
  "bytecode": "0x60806040523480156200001157600080fd5b5060405162001620380380620016208339818101604052810190620000379190620001dd565b81600090805190602001906200004f9291906200005f565b508060018190555050506200033b565b828054828255906000526020600020908101928215620000db579160200282015b82811115620000da5782518260006101000a81548173ffffffffffffffffffffffffffffffffffffffff021916908373ffffffffffffffffffffffffffffffffffffffff1602179055509160200191906001019062000080565b5b509050620000ea9190620000ee565b5090565b5b8082111562000109576000816000905550600101620000ef565b5090565b6000620001246200011e846200026b565b62000237565b905080838252602082019050828560208602820111156200014457600080fd5b60005b858110156200017857816200015d888262000182565b84526020840193506020830192505060018101905062000147565b5050509392505050565b600081519050620001938162000307565b92915050565b600082601f830112620001ab57600080fd5b8151620001bd8482602086016200010d565b91505092915050565b600081519050620001d78162000321565b92915050565b60008060408385031215620001f157600080fd5b600083015167ffffffffffffffff8111156200020c57600080fd5b6200021a8582860162000199565b92505060206200022d85828601620001c6565b9150509250929050565b6000604051905081810181811067ffffffffffffffff82111715620002615762000260620002d8565b5b8060405250919050565b600067ffffffffffffffff821115620002895762000288620002d8565b5b602082029050602081019050919050565b6000620002a782620002ae565b9050919050565b600073ffffffffffffffffffffffffffffffffffffffff82169050919050565b6000819050919050565b7f4e487b7100000000000000000000000000000000000000000000000000000000600052604160045260246000fd5b62000312816200029a565b81146200031e57600080fd5b50565b6200032c81620002ce565b81146200033857600080fd5b50565b6112d5806200034b6000396000f3fe6080604052600436106100955760003560e01c80636cb3e8ef116100595780636cb3e8ef146101745780639377d7111461019f578063d3650fb8146101e0578063efd990341461021d578063ffabc6731461025a5761009c565b80631703a018146100a15780632f65142c146100cc5780634ecabe33146100f757806361b8ce8c1461012057806364b711451461014b5761009c565b3661009c57005b600080fd5b3480156100ad57600080fd5b506100b6610297565b6040516100c39190611097565b60405180910390f35b3480156100d857600080fd5b506100e161029d565b6040516100ee9190610ffa565b60405180910390f35b34801561010357600080fd5b5061011e60048036038101906101199190610cf5565b61038b565b005b34801561012c57600080fd5b5061013561059f565b6040516101429190611097565b60405180910390f35b34801561015757600080fd5b50610172600480360381019061016d9190610ccc565b6105a5565b005b34801561018057600080fd5b50610189610a7a565b6040516101969190610fd8565b60405180910390f35b3480156101ab57600080fd5b506101c660048036038101906101c19190610ccc565b610b08565b6040516101d79594939291906110b2565b60405180910390f35b3480156101ec57600080fd5b5061020760048036038101906102029190610ccc565b610b7b565b6040516102149190610fbd565b60405180910390f35b34801561022957600080fd5b50610244600480360381019061023f9190610c90565b610bba565b604051610251919061101c565b60405180910390f35b34801561026657600080fd5b50610281600480360381019061027c9190610c90565b610c22565b60405161028e919061101c565b60405180910390f35b60015481565b60606002805480602002602001604051908101604052809291908181526020016000905b8282101561038257838290600052602060002090600502016040518060a001604052908160008201548152602001600182015481526020016002820160009054906101000a900473ffffffffffffffffffffffffffffffffffffffff1673ffffffffffffffffffffffffffffffffffffffff1673ffffffffffffffffffffffffffffffffffffffff168152602001600382015481526020016004820160009054906101000a900460ff161515151581525050815260200190600101906102c1565b50505050905090565b6000805b60008054905081101561044c573373ffffffffffffffffffffffffffffffffffffffff16600082815481106103ed577f4e487b7100000000000000000000000000000000000000000000000000000000600052603260045260246000fd5b9060005260206000200160009054906101000a900473ffffffffffffffffffffffffffffffffffffffff1673ffffffffffffffffffffffffffffffffffffffff16141561043957600191505b8080610444906111e2565b91505061038f565b508061048d576040517f08c379a000000000000000000000000000000000000000000000000000000000815260040161048490611037565b60405180910390fd5b60026040518060a0016040528060035481526020018581526020018473ffffffffffffffffffffffffffffffffffffffff16815260200160008152602001600015158152509080600181540180825580915050600190039060005260206000209060050201600090919091909150600082015181600001556020820151816001015560408201518160020160006101000a81548173ffffffffffffffffffffffffffffffffffffffff021916908373ffffffffffffffffffffffffffffffffffffffff1602179055506060820151816003015560808201518160040160006101000a81548160ff021916908315150217905550505060036000815480929190610595906111e2565b9190505550505050565b60035481565b6000805b600080549050811015610666573373ffffffffffffffffffffffffffffffffffffffff1660008281548110610607577f4e487b7100000000000000000000000000000000000000000000000000000000600052603260045260246000fd5b9060005260206000200160009054906101000a900473ffffffffffffffffffffffffffffffffffffffff1673ffffffffffffffffffffffffffffffffffffffff16141561065357600191505b808061065e906111e2565b9150506105a9565b50806106a7576040517f08c379a000000000000000000000000000000000000000000000000000000000815260040161069e90611037565b60405180910390fd5b60001515600283815481106106e5577f4e487b7100000000000000000000000000000000000000000000000000000000600052603260045260246000fd5b906000526020600020906005020160040160009054906101000a900460ff16151514610746576040517f08c379a000000000000000000000000000000000000000000000000000000000815260040161073d90611057565b60405180910390fd5b60001515600460003373ffffffffffffffffffffffffffffffffffffffff1673ffffffffffffffffffffffffffffffffffffffff168152602001908152602001600020600084815260200190815260200160002060009054906101000a900460ff161515146107ea576040517f08c379a00000000000000000000000000000000000000000000000000000000081526004016107e190611077565b60405180910390fd5b6001600460003373ffffffffffffffffffffffffffffffffffffffff1673ffffffffffffffffffffffffffffffffffffffff168152602001908152602001600020600084815260200190815260200160002060006101000a81548160ff0219169083151502179055506002828154811061088d577f4e487b7100000000000000000000000000000000000000000000000000000000600052603260045260246000fd5b906000526020600020906005020160030160008154809291906108af906111e2565b9190505550600154600283815481106108f1577f4e487b7100000000000000000000000000000000000000000000000000000000600052603260045260246000fd5b90600052602060002090600502016003015410610a7657600160028381548110610944577f4e487b7100000000000000000000000000000000000000000000000000000000600052603260045260246000fd5b906000526020600020906005020160040160006101000a81548160ff0219169083151502179055506000600283815481106109a8577f4e487b7100000000000000000000000000000000000000000000000000000000600052603260045260246000fd5b906000526020600020906005020160020160009054906101000a900473ffffffffffffffffffffffffffffffffffffffff169050600060028481548110610a18577f4e487b7100000000000000000000000000000000000000000000000000000000600052603260045260246000fd5b90600052602060002090600502016001015490508173ffffffffffffffffffffffffffffffffffffffff166108fc829081150290604051600060405180830381858888f19350505050158015610a72573d6000803e3d6000fd5b5050505b5050565b60606000805480602002602001604051908101604052809291908181526020018280548015610afe57602002820191906000526020600020905b8160009054906101000a900473ffffffffffffffffffffffffffffffffffffffff1673ffffffffffffffffffffffffffffffffffffffff1681526020019060010190808311610ab4575b5050505050905090565b60028181548110610b1857600080fd5b90600052602060002090600502016000915090508060000154908060010154908060020160009054906101000a900473ffffffffffffffffffffffffffffffffffffffff16908060030154908060040160009054906101000a900460ff16905085565b60008181548110610b8b57600080fd5b906000526020600020016000915054906101000a900473ffffffffffffffffffffffffffffffffffffffff1681565b6000600460008473ffffffffffffffffffffffffffffffffffffffff1673ffffffffffffffffffffffffffffffffffffffff168152602001908152602001600020600083815260200190815260200160002060009054906101000a900460ff16905092915050565b60046020528160005260406000206020528060005260406000206000915091509054906101000a900460ff1681565b600081359050610c608161125a565b92915050565b600081359050610c7581611271565b92915050565b600081359050610c8a81611288565b92915050565b60008060408385031215610ca357600080fd5b6000610cb185828601610c51565b9250506020610cc285828601610c7b565b9150509250929050565b600060208284031215610cde57600080fd5b6000610cec84828501610c7b565b91505092915050565b60008060408385031215610d0857600080fd5b6000610d1685828601610c7b565b9250506020610d2785828601610c66565b9150509250929050565b6000610d3d8383610d7f565b60208301905092915050565b6000610d558383610f37565b60a08301905092915050565b610d6a8161119a565b82525050565b610d798161119a565b82525050565b610d8881611188565b82525050565b610d9781611188565b82525050565b6000610da882611125565b610db28185611155565b9350610dbd83611105565b8060005b83811015610dee578151610dd58882610d31565b9750610de08361113b565b925050600181019050610dc1565b5085935050505092915050565b6000610e0682611130565b610e108185611166565b9350610e1b83611115565b8060005b83811015610e4c578151610e338882610d49565b9750610e3e83611148565b925050600181019050610e1f565b5085935050505092915050565b610e62816111ac565b82525050565b610e71816111ac565b82525050565b6000610e84601383611177565b91507f596f75206e6f74206120417070726f76657221000000000000000000000000006000830152602082019050919050565b6000610ec4602083611177565b91507f5472616e736174696f6e2068617320616c72656479206265656e2073656e74216000830152602082019050919050565b6000610f04601f83611177565b91507f63616e277420417070726f766520547261736e6174696f6e20547769636521006000830152602082019050919050565b60a082016000820151610f4d6000850182610f9f565b506020820151610f606020850182610f9f565b506040820151610f736040850182610d61565b506060820151610f866060850182610f9f565b506080820151610f996080850182610e59565b50505050565b610fa8816111d8565b82525050565b610fb7816111d8565b82525050565b6000602082019050610fd26000830184610d8e565b92915050565b60006020820190508181036000830152610ff28184610d9d565b905092915050565b600060208201905081810360008301526110148184610dfb565b905092915050565b60006020820190506110316000830184610e68565b92915050565b6000602082019050818103600083015261105081610e77565b9050919050565b6000602082019050818103600083015261107081610eb7565b9050919050565b6000602082019050818103600083015261109081610ef7565b9050919050565b60006020820190506110ac6000830184610fae565b92915050565b600060a0820190506110c76000830188610fae565b6110d46020830187610fae565b6110e16040830186610d70565b6110ee6060830185610fae565b6110fb6080830184610e68565b9695505050505050565b6000819050602082019050919050565b6000819050602082019050919050565b600081519050919050565b600081519050919050565b6000602082019050919050565b6000602082019050919050565b600082825260208201905092915050565b600082825260208201905092915050565b600082825260208201905092915050565b6000611193826111b8565b9050919050565b60006111a5826111b8565b9050919050565b60008115159050919050565b600073ffffffffffffffffffffffffffffffffffffffff82169050919050565b6000819050919050565b60006111ed826111d8565b91507fffffffffffffffffffffffffffffffffffffffffffffffffffffffffffffffff8214156112205761121f61122b565b5b600182019050919050565b7f4e487b7100000000000000000000000000000000000000000000000000000000600052601160045260246000fd5b61126381611188565b811461126e57600080fd5b50565b61127a8161119a565b811461128557600080fd5b50565b611291816111d8565b811461129c57600080fd5b5056fea2646970667358221220fab3bb9a700495841b53259fea1a70a9be1ab48e8c3329f665657484321ad8ef64736f6c63430008000033",
  "immutableReferences": {},
  "source": "// SPDX-License-Identifier: GPL-3.0\r\npragma solidity >=0.4.16 <0.9.0;\r\n\r\ncontract MultiSigWallet {\r\n    address[] public approvers;\r\n    uint256 public quorum;\r\n\r\n    struct Transfer {\r\n        uint256 id;\r\n        uint256 amount;\r\n        address payable to;\r\n        uint256 approvals;\r\n        bool sent;\r\n    }\r\n\r\n    Transfer[] public transfers;\r\n    uint256 public nextId;\r\n\r\n    mapping(address => mapping(uint256 => bool)) public approvals;\r\n\r\n    constructor(address[] memory _approvers, uint256 _quorum) {\r\n        approvers = _approvers;\r\n        quorum = _quorum;\r\n    }\r\n\r\n    function getApprovers() public view returns (address[] memory) {\r\n        return approvers;\r\n    }\r\n\r\n    function getTransfers() public view returns (Transfer[] memory) {\r\n        return transfers;\r\n    }\r\n\r\n    function craeteTransfer(uint256 amount, address payable to)\r\n        external\r\n        onlyApprover\r\n    {\r\n        transfers.push(Transfer(nextId, amount, to, 0, false));\r\n\r\n        nextId++;\r\n    }\r\n\r\n    function approveTransfers(uint256 id) external onlyApprover {\r\n        require(\r\n            transfers[id].sent == false,\r\n            \"Transation has alredy been sent!\"\r\n        );\r\n        require(\r\n            approvals[msg.sender][id] == false,\r\n            \"can't Approve Trasnation Twice!\"\r\n        );\r\n\r\n        approvals[msg.sender][id] = true;\r\n        transfers[id].approvals++;\r\n\r\n        if (transfers[id].approvals >= quorum) {\r\n            transfers[id].sent = true;\r\n            address payable to = transfers[id].to;\r\n            uint256 amount = transfers[id].amount;\r\n            to.transfer(amount);\r\n        }\r\n    }\r\n\r\n    receive() external payable {}\r\n\r\n    modifier onlyApprover() {\r\n        bool allowed = false;\r\n        for (uint256 i = 0; i < approvers.length; i++) {\r\n            if (approvers[i] == msg.sender) {\r\n                allowed = true;\r\n            }\r\n        }\r\n        require(allowed, \"You not a Approver!\");\r\n        _;\r\n    }\r\n\r\n    function checkApprovals(address _addr, uint256 id)\r\n        external\r\n        view\r\n        returns (bool)\r\n    {\r\n        return approvals[_addr][id];\r\n    }\r\n}\r\n",
  "sourcePath": "/mnt/g/javascript/Projects/BlockChain/multiSigWallet/contracts/wallet.sol",
  "compiler": {
    "name": "solc",
    "version": "0.8.0+commit.c7dfd78e.Emscripten.clang"
  },
  "schemaVersion": "3.4.2",
  "updatedAt": "2021-10-04T17:00:37.990Z",
  "networkType": "ethereum",
  "devdoc": {
    "kind": "dev",
    "methods": {},
    "version": 1
  },
  "userdoc": {
    "kind": "user",
    "methods": {},
    "version": 1
  }
}